{
  "_format": "hh-sol-artifact-1",
  "contractName": "Publication",
  "sourceName": "contracts/Publication.sol",
  "abi": [
    {
      "inputs": [],
      "stateMutability": "nonpayable",
      "type": "constructor"
    },
    {
      "anonymous": false,
      "inputs": [
        {
          "indexed": false,
          "internalType": "uint256",
          "name": "id",
          "type": "uint256"
        },
        {
          "indexed": false,
          "internalType": "address",
          "name": "author",
          "type": "address"
        },
        {
          "indexed": false,
          "internalType": "string",
          "name": "name",
          "type": "string"
        },
        {
          "indexed": false,
          "internalType": "string",
          "name": "data",
          "type": "string"
        }
      ],
      "name": "Publish",
      "type": "event"
    },
    {
      "inputs": [
        {
          "internalType": "string",
          "name": "data",
          "type": "string"
        },
        {
          "internalType": "string",
          "name": "name",
          "type": "string"
        }
      ],
      "name": "post",
      "outputs": [],
      "stateMutability": "nonpayable",
      "type": "function"
    }
  ],
  "bytecode": "0x608060405234801561001057600080fd5b506000600181905550610323806100286000396000f3fe608060405234801561001057600080fd5b506004361061002b5760003560e01c80630ae1b13d14610030575b600080fd5b6100fc6004803603604081101561004657600080fd5b810190808035906020019064010000000081111561006357600080fd5b82018360208201111561007557600080fd5b8035906020019184600183028401116401000000008311171561009757600080fd5b9091929391929390803590602001906401000000008111156100b857600080fd5b8201836020820111156100ca57600080fd5b803590602001918460018302840111640100000000831117156100ec57600080fd5b90919293919293905050506100fe565b005b60018060008282540192505081905550818160008060015481526020019081526020016000206000019190610134929190610250565b5033600080600154815260200190815260200160002060010160006101000a81548173ffffffffffffffffffffffffffffffffffffffff021916908373ffffffffffffffffffffffffffffffffffffffff1602179055507f88ba4711fcac5d713b7b53ff2d9b9945a6dcfb1e0e19b882c71426d03c0cc9046001543384848888604051808781526020018673ffffffffffffffffffffffffffffffffffffffff16815260200180602001806020018381038352878782818152602001925080828437600081840152601f19601f8201169050808301925050508381038252858582818152602001925080828437600081840152601f19601f8201169050808301925050509850505050505050505060405180910390a150505050565b828054600181600116156101000203166002900490600052602060002090601f016020900481019282601f1061029157803560ff19168380011785556102bf565b828001600101855582156102bf579182015b828111156102be5782358255916020019190600101906102a3565b5b5090506102cc91906102d0565b5090565b5b808211156102e95760008160009055506001016102d1565b509056fea264697066735822122024c36cdaad85ec1e1cd2434940773cea35bd40c572d3ec8148044931bc7b4c3964736f6c63430007030033",
  "linkReferences": {},
  "deployedLinkReferences": {}
}