{
  "_format": "hh-sol-artifact-1",
  "contractName": "Publication",
  "sourceName": "contracts/Publication.sol",
  "abi": [
    {
      "inputs": [],
      "stateMutability": "nonpayable",
      "type": "constructor"
    },
    {
      "anonymous": false,
      "inputs": [
        {
          "indexed": false,
          "internalType": "address",
          "name": "author",
          "type": "address"
        },
        {
          "indexed": false,
          "internalType": "string",
          "name": "name",
          "type": "string"
        },
        {
          "indexed": false,
          "internalType": "string",
          "name": "data",
          "type": "string"
        }
      ],
      "name": "Publish",
      "type": "event"
    },
    {
      "inputs": [
        {
          "internalType": "string",
          "name": "data",
          "type": "string"
        },
        {
          "internalType": "string",
          "name": "name",
          "type": "string"
        }
      ],
      "name": "post",
      "outputs": [],
      "stateMutability": "nonpayable",
      "type": "function"
    }
  ],
  "bytecode": "0x608060405234801561001057600080fd5b506000600181905550610347806100286000396000f3fe608060405234801561001057600080fd5b506004361061002b5760003560e01c80630ae1b13d14610030575b600080fd5b6100fc6004803603604081101561004657600080fd5b810190808035906020019064010000000081111561006357600080fd5b82018360208201111561007557600080fd5b8035906020019184600183028401116401000000008311171561009757600080fd5b9091929391929390803590602001906401000000008111156100b857600080fd5b8201836020820111156100ca57600080fd5b803590602001918460018302840111640100000000831117156100ec57600080fd5b90919293919293905050506100fe565b005b600160008154809291906001019190505560018190555083836000806001548152602001908152602001600020600101919061013b929190610274565b50818160008060015481526020019081526020016000206000019190610162929190610274565b5033600080600154815260200190815260200160002060020160006101000a81548173ffffffffffffffffffffffffffffffffffffffff021916908373ffffffffffffffffffffffffffffffffffffffff1602179055507faf7641eb5541f09184b8328feea9222f61ca6a3cb738b4cbc141788c66ebbcdd3383838787604051808673ffffffffffffffffffffffffffffffffffffffff16815260200180602001806020018381038352878782818152602001925080828437600081840152601f19601f8201169050808301925050508381038252858582818152602001925080828437600081840152601f19601f82011690508083019250505097505050505050505060405180910390a150505050565b828054600181600116156101000203166002900490600052602060002090601f016020900481019282601f106102b557803560ff19168380011785556102e3565b828001600101855582156102e3579182015b828111156102e25782358255916020019190600101906102c7565b5b5090506102f091906102f4565b5090565b5b8082111561030d5760008160009055506001016102f5565b509056fea26469706673582212209e0f004dc368c378fc322886c94670eb6bc60efee0572b0d2d3e67f3b218bf1364736f6c63430007030033",
  "linkReferences": {},
  "deployedLinkReferences": {}
}